:10000000D3C00000FFC00000FDC00000FBC0000026
:10001000F9C00000F7C00000F5C00000F3C0000008
:10002000F1C00000EFC00000EDC00000EBC0000018
:10003000E9C00000E7C00000E5C00000E3C0000028
:10004000E1C00000DFC00000DDC00000DBC0000038
:10005000D9C00000D7C00000D5C00000E4C4000033
:10006000D1C000009EC20000D2C20000CBC0000080
:10007000C9C00000C7C00000C5C00000C3C0000068
:10008000C1C00000BFC00000BDC00000BBC0000078
:1000900033C3000067C30000B5C00000B3C0000058
:1000A000B1C00000AFC00000ADC00000ABC0000098
:1000B000A9C00000A7C00000A5C00000A3C00000A8
:1000C000A1C000009FC000009DC000009BC00000B8
:1000D00099C0000097C0000095C0000093C00000C8
:1000E00091C00000010210202008081020401020BC
:1000F00040800201020108040201010204081020EC
:1001000040808040201008040201800402018040E9
:100110002010080402010804020101020408102052
:1001200040800102040810204080050505050705F0
:1001300008080808020202020A0A08080404040463
:10014000010101010101010103030303030303038F
:10015000040707070C0C0C0C0C0C0C0C020202021E
:1001600006060606060606060B0B0B0B0B0B0B0B07
:1001700000002200250028002B002E003100340052
:1001800002010000050108010B010000210024000C
:1001900027002A002D003000330001010000040177
:1001A00007010A013903E40311241FBECFEFD1E296
:1001B000DEBFCDBF00E00CBF12E0A0E0B2E0E8E09F
:1001C000F1E100E00BBF02C007900D92A831B1072A
:1001D000D9F723E0A8E1B2E001C01D92AF35B20724
:1001E000E1F711E0C8EAD1E000E005C0229701097B
:1001F000FE010BBF68D5C43AD10780E00807B1F70C
:1002000008D480C7FDCE26E040E855E260E070E00B
:1002100088E192E066D126E040E855E260E070E0D7
:1002200085EB92E05ED161E08DE0F1C4CF93DF9386
:1002300000D000D0CDB7DEB788E192E044D0892B62
:1002400031F46AE070E080E090E05AD4F5CF6AE0E3
:1002500070E080E090E054D466E072E0CE01019658
:1002600085D388E192E02FD01816190644F488E16E
:1002700092E042D0682FCE010196B7D3F2CF6981C8
:100280007A816115710599F0FB0101900020E9F771
:10029000AF0141505109461B570BE0911802F091F4
:1002A00019020280F381E02D88E192E01995CE01D8
:1002B0000196F5D226960FB6F894DEBF0FBECDBFDD
:1002C000DF91CF910895FC01818D228D90E0805CBB
:1002D0009F4F821B91098F7399270895FC01918D7F
:1002E000828D981731F0828DE80FF11D858D90E099
:1002F00008958FEF9FEF0895FC01918D828D9817DF
:1003000061F0828DDF01A80FB11D5D968C91928DF9
:100310009F5F9F73928F90E008958FEF9FEF0895F6
:1003200080E393E0892B39F080E090E0892B19F08D
:1003300097D1811124C08BED93E0892B39F080E0B7
:1003400090E0892B19F037D281111CC080E090E039
:10035000892B41F080E090E0892B21F00E94000081
:10036000811113C080E090E0892BA1F080E090E043
:10037000892B81F00E94000081110AC008950E941B
:100380000000D9CF0E940000E1CF0E940000EACF18
:100390000C9400000895FC01848DDF01A80FB11DAD
:1003A000A35ABF4F2C91848D90E001968F739927AB
:1003B000848FA689B7892C93A089B1898C91806498
:1003C0008C93938D848D981306C00288F389E02D59
:1003D00080818F7D80830895CF93DF93EC01888D9A
:1003E0008823C1F0EA89FB89808185FD05C0A88941
:1003F000B9898C9186FD0EC00FB607FCF5CF8081C0
:1004000085FFF2CFA889B9898C9185FFEDCFCE0108
:10041000C2DFE8CFDF91CF910895CF92DF92FF92B4
:100420000F931F93CF93DF931F92CDB7DEB76C016D
:10043000DC015B969C915B975C968C915C97981322
:1004400007C05096ED91FC915197808185FD31C098
:10045000F601038D10E00F5F1F4F0F731127F02E71
:10046000F601848DF81210C00FB607FCF9CFD60143
:100470005096ED91FC915197808185FFF1CFC60197
:10048000698389DF6981ECCF838DE80FF11DE35A21
:10049000FF4F6083D6015B960C935B975296ED916C
:1004A000FC91539780818062808381E058968C9381
:1004B0000DC0D6015696ED91FC91579760835096EA
:1004C000ED91FC91519780818064808381E090E080
:1004D0000F90DF91CF911F910F91FF90DF90CF9000
:1004E0000895BF92CF92DF92EF92FF92CF93DF9366
:1004F000EC016A017B01B22EE889F98982E08083F0
:10050000411581EE58076105710599F060E079E0C9
:100510008DE390E0A7019601B4D321503109410940
:1005200051095695479537952795211580E138074C
:1005300090F0E889F989108260E874E88EE190E033
:10054000A70196019ED321503109410951095695C1
:10055000479537952795EC85FD853083EE85FF859A
:100560002083188EEC89FD89B082EA89FB8980811D
:1005700080618083EA89FB89808188608083EA8941
:10058000FB89808180688083EA89FB8980818F7DF7
:100590008083DF91CF91FF90EF90DF90CF90BF905D
:1005A00008951F920F920FB60F9211240BB60F925F
:1005B0002F938F939F93EF93FF93E0912802F091F5
:1005C00029028081E0912E02F0912F0282FD12C05B
:1005D0009081809131028F5F8F7320913202821758
:1005E00051F0E0913102F0E0E85EFD4F958F80938D
:1005F000310201C08081FF91EF919F918F912F91E6
:100600000F900BBE0F900FBE0F901F9018951F926A
:100610000F920FB60F9211240BB60F922F933F93A8
:100620004F935F936F937F938F939F93AF93BF93FA
:10063000EF93FF9388E192E0AEDEFF91EF91BF91DF
:10064000AF919F918F917F916F915F914F913F916A
:100650002F910F900BBE0F900FBE0F901F9018950B
:1006600088E192E030DE21E0892B09F420E0822F3E
:10067000089510921B0210921A0288EE93E0A0E0F7
:10068000B0E080931C0290931D02A0931E02B093D1
:100690001F028BE092E0909319028093180285EC80
:1006A00090E0909325028093240284EC90E0909354
:1006B00027028093260280EC90E090932902809399
:1006C000280281EC90E090932B0280932A0282EC26
:1006D00090E090932D0280932C0286EC90E0909312
:1006E0002F0280932E021092310210923202109249
:1006F00033021092340208951F920F920FB60F9298
:1007000011240BB60F922F938F939F93EF93FF9328
:10071000E091C502F091C6028081E091CB02F09198
:10072000CC0282FD12C090818091CE028F5F8F73C8
:100730002091CF02821751F0E091CE02F0E0EB540D
:10074000FD4F958F8093CE0201C08081FF91EF9184
:100750009F918F912F910F900BBE0F900FBE0F9016
:100760001F9018951F920F920FB60F9211240BB67F
:100770000F922F933F934F935F936F937F938F933A
:100780009F93AF93BF93EF93FF9385EB92E003DECC
:10079000FF91EF91BF91AF919F918F917F916F9159
:1007A0005F914F913F912F910F900BBE0F900FBE15
:1007B0000F901F90189585EB92E085DD21E0892B45
:1007C00009F420E0822F08951092B8021092B70227
:1007D00088EE93E0A0E0B0E08093B9029093BA0273
:1007E000A093BB02B093BC028BE092E09093B60260
:1007F0008093B5028DEC90E09093C2028093C10289
:100800008CEC90E09093C4028093C30288EC90E05B
:100810009093C6028093C50289EC90E09093C80241
:100820008093C7028AEC90E09093CA028093C90239
:100830008EEC90E09093CC028093CB021092CE028B
:100840001092CF021092D0021092D1020895CF924E
:10085000DF92EF92FF920F931F93CF93DF936C0180
:100860007A01EB01E60EF71E00E010E0CE15DF0581
:1008700061F06991D601ED91FC910190F081E02D3C
:10088000C6011995080F191FF1CFC801DF91CF914B
:100890001F910F91FF90EF90DF90CF900895FC0192
:1008A00080819181ACC2CF93DF93EC0188819981E3
:1008B000009709F0A4D2198218821D821C821B8223
:1008C0001A82DF91CF9108950F931F93CF93DF93F7
:1008D000EC018B016F5F7F4F888199811FD3009757
:1008E00031F0998388831B830A8381E001C080E013
:1008F000DF91CF911F910F910895CF93DF93EC017A
:1009000088819981892B29F08A819B818617970795
:1009100058F4CE01D9DF882341F08C819D81892B49
:1009200019F4E881F981108281E0DF91CF91089577
:10093000EF92FF920F931F93CF93DF93EC017B0114
:100940008A01BA01DADF811103C0CE01ACDF06C033
:100950001D830C83B70188819981CDD3CE01DF91AE
:10096000CF911F910F91FF90EF900895FC0111829C
:10097000108213821282158214826115710551F062
:10098000FB0101900020E9F7AF0141505109461BDE
:10099000570BCECF0895EF92FF920F931F93CF93F3
:1009A000DF93EC017B010C811D816115710511F450
:1009B00080E014C04115510581F0040F151FB801E6
:1009C0009CDF8823A9F3288139818C819D81B7011F
:1009D000820F931F90D31D830C8381E0DF91CF9111
:1009E0001F910F91FF90EF900895CF93DF931F9287
:1009F0001F92CDB7DEB769831A8241E050E0BE0195
:100A00006F5F7F4FC8DF0F900F90DF91CF910895F8
:100A100008959BD0FDDFF7DBC0E9D1E007DC20972C
:100A2000E9F37EDCFBCF1F920F920FB60F921124D9
:100A30002F933F938F939F93AF93BF9380915303D3
:100A400090915403A0915503B091560330915203F5
:100A500023E0230F2D3720F40196A11DB11D05C001
:100A600026E8230F0296A11DB11D20935203809307
:100A7000530390935403A0935503B093560380916E
:100A8000570390915803A0915903B0915A030196CE
:100A9000A11DB11D8093570390935803A093590350
:100AA000B0935A03BF91AF919F918F913F912F9136
:100AB0000F900FBE0F901F9018953FB7F89480913C
:100AC000570390915803A0915903B0915A0326B54A
:100AD000A89B05C02F3F19F00196A11DB11D3FBF76
:100AE0006627782F892F9A2F620F711D811D911D06
:100AF00042E0660F771F881F991F4A95D1F7089526
:100B0000CF92DF92EF92FF92CF93DF936B017C0144
:100B1000D4DFEB01C114D104E104F10479F0B0D0C9
:100B2000CCDF6C1B7D0B683E7340A0F381E0C81ADC
:100B3000D108E108F108C851DC4FECCFDF91CF912B
:100B4000FF90EF90DF90CF900895789484B5826005
:100B500084BD84B5816084BD85B5826085BD85B561
:100B6000816085BDEEE6F0E0808181608083E1E810
:100B7000F0E0108280818260808380818160808348
:100B8000E0E8F0E0808181608083E1EBF0E080814B
:100B900084608083E0EBF0E0808181608083E1E924
:100BA000F0E0808182608083808181608083E0E9E1
:100BB000F0E0808181608083E1EAF0E08081826002
:100BC0008083808181608083E0EAF0E080818160C1
:100BD0008083E1E2F1E080818260808380818160B6
:100BE0008083E0E2F1E0808181608083EAE7F0E0E9
:100BF0008081846080838081826080838081816045
:100C000080838081806880831092C1000895CF9393
:100C1000DF9390E0FC01EC51FF4F2491FC01E65D75
:100C2000FE4F8491882349F190E0880F991FFC01C1
:100C3000E657FE4FA591B49180599E4FFC01C59196
:100C4000D4919FB7611108C0F8948C9120958223AC
:100C50008C93888182230AC0623051F4F8948C917D
:100C6000322F309583238C938881822B888304C014
:100C7000F8948C91822B8C939FBFDF91CF91089534
:100C80000895A1E21A2EAA1BBB1BFD010DC0AA1FCD
:100C9000BB1FEE1FFF1FA217B307E407F50720F0E5
:100CA000A21BB30BE40BF50B661F771F881F991F60
:100CB0001A9469F760957095809590959B01AC01A9
:100CC000BD01CF0108950790F691E02D1994CF93BF
:100CD000DF938230910510F482E090E0E0915D03B3
:100CE000F0915E0320E030E0A0E0B0E0309739F111
:100CF0004081518148175907B8F04817590771F4D6
:100D000082819381109729F013969C938E9312976A
:100D10002CC090935E0380935D0327C0211531059D
:100D200031F04217530718F0A901DB0101C0EF01B0
:100D30009A01BD01DF010280F381E02DD7CF21159B
:100D40003105F9F0281B390B2430310580F48A81F4
:100D50009B816115710521F0FB019383828304C09F
:100D600090935E0380935D03FE01329644C0FE01C2
:100D7000E20FF31F81939193225031093983288325
:100D80003AC020915B0330915C03232B41F4209106
:100D900002023091030230935C0320935B032091A5
:100DA0000002309101022115310541F42DB73EB703
:100DB0004091040250910502241B350BE0915B0326
:100DC000F0915C03E217F307A0F42E1B3F0B2817EA
:100DD000390778F0AC014E5F5F4F2417350748F0B4
:100DE0004E0F5F1F50935C0340935B03819391937D
:100DF00002C0E0E0F0E0CF01DF91CF910895CF9302
:100E0000DF93009709F487C0FC01329713821282A6
:100E1000C0915D03D0915E03209781F420813181E0
:100E2000280F391F80915B0390915C038217930711
:100E300079F5F0935C03E0935B036DC0DE0120E085
:100E400030E0AE17BF0750F412964D915C911397A6
:100E50009D014115510509F1DA01F3CFB383A28356
:100E600040815181840F951F8A179B0771F48D91E2
:100E70009C911197840F951F0296918380831296FF
:100E80008D919C911397938382832115310529F4C9
:100E9000F0935E03E0935D033EC0D9011396FC938B
:100EA000EE9312974D915D91A40FB51FEA17FB07C2
:100EB00079F480819181840F951F0296D901119652
:100EC0009C938E938281938113969C938E93129719
:100ED000E0E0F0E08A819B81009719F0FE01EC01CF
:100EE000F9CFCE01029628813981820F931F20917C
:100EF0005B0330915C032817390769F4309729F4B4
:100F000010925E0310925D0302C013821282D0938E
:100F10005C03C0935B03DF91CF9108956F927F9242
:100F20008F929F92AF92BF92CF92DF92EF92FF92F9
:100F30000F931F93CF93DF93EC01CB01209779F4AC
:100F4000DF91CF911F910F91FF90EF90DF90CF90A5
:100F5000BF90AF909F908F907F906F90B8CEFE0122
:100F6000E60FF71F9E0122503109E217F30708F43C
:100F7000A8C0D9010D911C91119706171707B0F061
:100F80000530110508F49BC0A801445051094617CB
:100F9000570708F494C002501109061B170B019360
:100FA00011936D937C93CF012ADF89C05B01A01A56
:100FB000B10A4E01800E911EA0915D03B0915E03B7
:100FC000612C712C60E070E0109709F449C0A815FD
:100FD000B905C9F5ED90FC901197670142E0C40E88
:100FE000D11CCA14DB0478F147018A189B086401FC
:100FF00042E0C40ED11C1296BC9012971396AC918D
:10100000B5E0CB16D10440F0B282A38391828082F6
:10101000D9018D939C9309C00E5F1F4F0E0D1F1DAC
:10102000F90111830083EB2DFA2F6115710531F061
:10103000DB011396FC93EE93129741C0F0935E038D
:10104000E0935D033CC06D917C9111976616770625
:1010500008F43B01BD0112960D90BC91A02DB4CFB8
:1010600060915B0370915C0368157905E9F468167B
:101070007906D0F4409100025091010241155105CA
:1010800041F44DB75EB76091040270910502461BB2
:10109000570BE417F507A8F4F0935C03E0935B03A8
:1010A000F901918380830BC012DE7C01009749F027
:1010B000A801BE0117D0CE01A2DEC70104C0CE0137
:1010C00002C080E090E0DF91CF911F910F91FF90DF
:1010D000EF90DF90CF90BF90AF909F908F907F90D8
:1010E0006F900895FB01DC0102C001900D92415008
:1010F0005040D8F70895FB01DC0101900D920020CB
:08110000E1F70895F894FFCF18
:1011080000005F03800000000000000D0227046358
:08111800017C016E01EC0100F5
:00000001FF
